{
  "address": "0xda0E96CbcA7f4672b04f2EEF6Fc3361286b8638D",
  "abi": [
    {
      "inputs": [
        {
          "internalType": "contract Mytoken",
          "name": "_token",
          "type": "address"
        },
        {
          "internalType": "contract Mytoken1",
          "name": "_token1",
          "type": "address"
        }
      ],
      "stateMutability": "nonpayable",
      "type": "constructor"
    },
    {
      "anonymous": false,
      "inputs": [
        {
          "indexed": true,
          "internalType": "address",
          "name": "_liquidityProvider",
          "type": "address"
        },
        {
          "indexed": false,
          "internalType": "uint256",
          "name": "_sharesBurned",
          "type": "uint256"
        }
      ],
      "name": "BurnLpToken",
      "type": "event"
    },
    {
      "anonymous": false,
      "inputs": [
        {
          "indexed": true,
          "internalType": "address",
          "name": "_liquidityProvider",
          "type": "address"
        },
        {
          "indexed": false,
          "internalType": "uint256",
          "name": "_sharesMinted",
          "type": "uint256"
        }
      ],
      "name": "MintLpToken",
      "type": "event"
    },
    {
      "inputs": [
        {
          "internalType": "uint256",
          "name": "_amountToken1",
          "type": "uint256"
        },
        {
          "internalType": "uint256",
          "name": "_amountToken2",
          "type": "uint256"
        }
      ],
      "name": "addLiquidity",
      "outputs": [
        {
          "internalType": "uint256",
          "name": "_liquidityShares",
          "type": "uint256"
        }
      ],
      "stateMutability": "nonpayable",
      "type": "function"
    },
    {
      "inputs": [],
      "name": "getReserve1",
      "outputs": [
        {
          "internalType": "uint256",
          "name": "",
          "type": "uint256"
        }
      ],
      "stateMutability": "view",
      "type": "function"
    },
    {
      "inputs": [],
      "name": "getReserve2",
      "outputs": [
        {
          "internalType": "uint256",
          "name": "",
          "type": "uint256"
        }
      ],
      "stateMutability": "view",
      "type": "function"
    },
    {
      "inputs": [],
      "name": "getReserves",
      "outputs": [
        {
          "internalType": "uint256",
          "name": "_reserve1",
          "type": "uint256"
        },
        {
          "internalType": "uint256",
          "name": "_reserve2",
          "type": "uint256"
        }
      ],
      "stateMutability": "view",
      "type": "function"
    },
    {
      "inputs": [],
      "name": "mintMytoken",
      "outputs": [],
      "stateMutability": "nonpayable",
      "type": "function"
    },
    {
      "inputs": [],
      "name": "mintMytoken1",
      "outputs": [],
      "stateMutability": "nonpayable",
      "type": "function"
    },
    {
      "inputs": [],
      "name": "mytoken",
      "outputs": [
        {
          "internalType": "contract Mytoken",
          "name": "",
          "type": "address"
        }
      ],
      "stateMutability": "view",
      "type": "function"
    },
    {
      "inputs": [],
      "name": "mytoken1",
      "outputs": [
        {
          "internalType": "contract Mytoken1",
          "name": "",
          "type": "address"
        }
      ],
      "stateMutability": "view",
      "type": "function"
    },
    {
      "inputs": [
        {
          "internalType": "uint256",
          "name": "_liquidityShares",
          "type": "uint256"
        }
      ],
      "name": "removeLiquidity",
      "outputs": [
        {
          "internalType": "uint256",
          "name": "_amountToken1",
          "type": "uint256"
        },
        {
          "internalType": "uint256",
          "name": "_amountToken2",
          "type": "uint256"
        }
      ],
      "stateMutability": "nonpayable",
      "type": "function"
    },
    {
      "inputs": [],
      "name": "reserve1",
      "outputs": [
        {
          "internalType": "uint256",
          "name": "",
          "type": "uint256"
        }
      ],
      "stateMutability": "view",
      "type": "function"
    },
    {
      "inputs": [],
      "name": "reserve2",
      "outputs": [
        {
          "internalType": "uint256",
          "name": "",
          "type": "uint256"
        }
      ],
      "stateMutability": "view",
      "type": "function"
    },
    {
      "inputs": [
        {
          "internalType": "uint256",
          "name": "_amountToken1",
          "type": "uint256"
        }
      ],
      "name": "swaptokens1to2",
      "outputs": [],
      "stateMutability": "nonpayable",
      "type": "function"
    },
    {
      "inputs": [
        {
          "internalType": "uint256",
          "name": "_amountToken1",
          "type": "uint256"
        }
      ],
      "name": "swaptokens2to1",
      "outputs": [],
      "stateMutability": "nonpayable",
      "type": "function"
    },
    {
      "inputs": [],
      "name": "totalLiquidity",
      "outputs": [
        {
          "internalType": "uint256",
          "name": "",
          "type": "uint256"
        }
      ],
      "stateMutability": "view",
      "type": "function"
    },
    {
      "inputs": [
        {
          "internalType": "address",
          "name": "",
          "type": "address"
        }
      ],
      "name": "userLiquidity",
      "outputs": [
        {
          "internalType": "uint256",
          "name": "",
          "type": "uint256"
        }
      ],
      "stateMutability": "view",
      "type": "function"
    }
  ],
  "transactionHash": "0xf70d3cfbc705a44f33ca566162d0e5849c8f39841580fac88a6044137fa19731",
  "args": [
    "0x466C868acb03ED465f29dbDD1643062935A37056",
    "0x15Edeb1DdAdAbAF25Aaabb4cF56614DC3Be039ee"
  ],
  "numDeployments": 1,
  "solcInputHash": "94cb5d9d6f10f001ebae633096828068",
  "bytecode": "0x60806040523480156200001157600080fd5b5060405162001e2838038062001e28833981810160405281019062000037919062000183565b816000806101000a81548173ffffffffffffffffffffffffffffffffffffffff021916908373ffffffffffffffffffffffffffffffffffffffff16021790555080600160006101000a81548173ffffffffffffffffffffffffffffffffffffffff021916908373ffffffffffffffffffffffffffffffffffffffff1602179055505050620001ca565b600080fd5b600073ffffffffffffffffffffffffffffffffffffffff82169050919050565b6000620000f282620000c5565b9050919050565b60006200010682620000e5565b9050919050565b6200011881620000f9565b81146200012457600080fd5b50565b60008151905062000138816200010d565b92915050565b60006200014b82620000e5565b9050919050565b6200015d816200013e565b81146200016957600080fd5b50565b6000815190506200017d8162000152565b92915050565b600080604083850312156200019d576200019c620000c0565b5b6000620001ad8582860162000127565b9250506020620001c0858286016200016c565b9150509250929050565b611c4e80620001da6000396000f3fe608060405234801561001057600080fd5b50600436106100f55760003560e01c80639c8f9f2311610097578063ba4c28c311610066578063ba4c28c314610242578063c5a1091714610272578063fc7410601461028e578063fcab4350146102aa576100f5565b80639c8f9f23146101b95780639cd441da146101ea578063aba7e58b1461021a578063b9abf69a14610224576100f5565b80635c0b9a2b116100d35780635c0b9a2b146101555780635eab74fc146101735780635f07d45f1461019157806390dc67e61461019b576100f5565b80630902f1ac146100fa57806315770f92146101195780635a76f25e14610137575b600080fd5b6101026102c8565b604051610110929190611531565b60405180910390f35b6101216102d9565b60405161012e919061155a565b60405180910390f35b61013f6102df565b60405161014c919061155a565b60405180910390f35b61015d6102e5565b60405161016a919061155a565b60405180910390f35b61017b6102eb565b60405161018891906115f4565b60405180910390f35b61019961030f565b005b6101a36103a4565b6040516101b0919061155a565b60405180910390f35b6101d360048036038101906101ce9190611640565b6103ae565b6040516101e1929190611531565b60405180910390f35b61020460048036038101906101ff919061166d565b6107b8565b604051610211919061155a565b60405180910390f35b610222610c38565b005b61022c610ccf565b60405161023991906116ce565b60405180910390f35b61025c60048036038101906102579190611727565b610cf5565b604051610269919061155a565b60405180910390f35b61028c60048036038101906102879190611640565b610d0d565b005b6102a860048036038101906102a39190611640565b611049565b005b6102b2611383565b6040516102bf919061155a565b60405180910390f35b600080600254915060035490509091565b60045481565b60025481565b60035481565b60008054906101000a900473ffffffffffffffffffffffffffffffffffffffff1681565b60008054906101000a900473ffffffffffffffffffffffffffffffffffffffff1673ffffffffffffffffffffffffffffffffffffffff166340c10f1933655af3107a40006040518363ffffffff1660e01b815260040161037092919061179e565b600060405180830381600087803b15801561038a57600080fd5b505af115801561039e573d6000803e3d6000fd5b50505050565b6000600254905090565b60008082600560003373ffffffffffffffffffffffffffffffffffffffff1673ffffffffffffffffffffffffffffffffffffffff168152602001908152602001600020541015610433576040517f08c379a000000000000000000000000000000000000000000000000000000000815260040161042a90611824565b60405180910390fd5b60008060009054906101000a900473ffffffffffffffffffffffffffffffffffffffff1673ffffffffffffffffffffffffffffffffffffffff166370a08231306040518263ffffffff1660e01b815260040161048f9190611844565b602060405180830381865afa1580156104ac573d6000803e3d6000fd5b505050506040513d601f19601f820116820180604052508101906104d09190611874565b90506000600160009054906101000a900473ffffffffffffffffffffffffffffffffffffffff1673ffffffffffffffffffffffffffffffffffffffff166370a08231306040518263ffffffff1660e01b815260040161052f9190611844565b602060405180830381865afa15801561054c573d6000803e3d6000fd5b505050506040513d601f19601f820116820180604052508101906105709190611874565b90506000600454905080838761058691906118d0565b6105909190611941565b945080828761059f91906118d0565b6105a99190611941565b93506000851180156105bb5750600084115b6105fa576040517f08c379a00000000000000000000000000000000000000000000000000000000081526004016105f1906119be565b60405180910390fd5b610604338761138d565b610624858461061391906119de565b858461061f91906119de565b611400565b60008054906101000a900473ffffffffffffffffffffffffffffffffffffffff1673ffffffffffffffffffffffffffffffffffffffff1663a9059cbb33876040518363ffffffff1660e01b815260040161067f929190611a12565b6020604051808303816000875af115801561069e573d6000803e3d6000fd5b505050506040513d601f19601f820116820180604052508101906106c29190611a73565b5060008054906101000a900473ffffffffffffffffffffffffffffffffffffffff1673ffffffffffffffffffffffffffffffffffffffff1663a9059cbb33866040518363ffffffff1660e01b815260040161071e929190611a12565b6020604051808303816000875af115801561073d573d6000803e3d6000fd5b505050506040513d601f19601f820116820180604052508101906107619190611a73565b503373ffffffffffffffffffffffffffffffffffffffff167fcb69be6f06914cd72d42e18a286e6ea41d64fa0e34ba87c4002d28c4c493522a876040516107a8919061155a565b60405180910390a2505050915091565b60008060009054906101000a900473ffffffffffffffffffffffffffffffffffffffff1673ffffffffffffffffffffffffffffffffffffffff16633158aa7f33856040518363ffffffff1660e01b8152600401610816929190611a12565b6020604051808303816000875af1158015610835573d6000803e3d6000fd5b505050506040513d601f19601f820116820180604052508101906108599190611a73565b610898576040517f08c379a000000000000000000000000000000000000000000000000000000000815260040161088f90611aec565b60405180910390fd5b600160009054906101000a900473ffffffffffffffffffffffffffffffffffffffff1673ffffffffffffffffffffffffffffffffffffffff16633158aa7f33846040518363ffffffff1660e01b81526004016108f5929190611a12565b6020604051808303816000875af1158015610914573d6000803e3d6000fd5b505050506040513d601f19601f820116820180604052508101906109389190611a73565b610977576040517f08c379a000000000000000000000000000000000000000000000000000000000815260040161096e90611aec565b60405180910390fd5b6000806109826102c8565b9150915060008211806109955750600081115b156109f35781846109a691906118d0565b81866109b291906118d0565b146109f2576040517f08c379a00000000000000000000000000000000000000000000000000000000081526004016109e990611b58565b60405180910390fd5b5b6000600454905060008103610a1d57610a168587610a1191906118d0565b611412565b9350610a56565b610a53838288610a2d91906118d0565b610a379190611941565b838388610a4491906118d0565b610a4e9190611941565b61148c565b93505b60008411610a99576040517f08c379a0000000000000000000000000000000000000000000000000000000008152600401610a9090611bc4565b60405180910390fd5b610aa333856114a5565b610be160008054906101000a900473ffffffffffffffffffffffffffffffffffffffff1673ffffffffffffffffffffffffffffffffffffffff166370a08231306040518263ffffffff1660e01b8152600401610aff9190611844565b602060405180830381865afa158015610b1c573d6000803e3d6000fd5b505050506040513d601f19601f82011682018060405250810190610b409190611874565b600160009054906101000a900473ffffffffffffffffffffffffffffffffffffffff1673ffffffffffffffffffffffffffffffffffffffff166370a08231306040518263ffffffff1660e01b8152600401610b9b9190611844565b602060405180830381865afa158015610bb8573d6000803e3d6000fd5b505050506040513d601f19601f82011682018060405250810190610bdc9190611874565b611400565b3373ffffffffffffffffffffffffffffffffffffffff167f9ce434f8c25ca029d1f79dd217b13223ff3c5eddc4bed0a34d004f56a854df7f85604051610c27919061155a565b60405180910390a250505092915050565b600160009054906101000a900473ffffffffffffffffffffffffffffffffffffffff1673ffffffffffffffffffffffffffffffffffffffff166340c10f1933655af3107a40006040518363ffffffff1660e01b8152600401610c9b92919061179e565b600060405180830381600087803b158015610cb557600080fd5b505af1158015610cc9573d6000803e3d6000fd5b50505050565b600160009054906101000a900473ffffffffffffffffffffffffffffffffffffffff1681565b60056020528060005260406000206000915090505481565b60008054906101000a900473ffffffffffffffffffffffffffffffffffffffff1673ffffffffffffffffffffffffffffffffffffffff16633158aa7f33836040518363ffffffff1660e01b8152600401610d68929190611a12565b6020604051808303816000875af1158015610d87573d6000803e3d6000fd5b505050506040513d601f19601f82011682018060405250810190610dab9190611a73565b610dea576040517f08c379a0000000000000000000000000000000000000000000000000000000008152600401610de190611aec565b60405180910390fd5b600160009054906101000a900473ffffffffffffffffffffffffffffffffffffffff1673ffffffffffffffffffffffffffffffffffffffff166340c10f1933836040518363ffffffff1660e01b8152600401610e47929190611a12565b600060405180830381600087803b158015610e6157600080fd5b505af1158015610e75573d6000803e3d6000fd5b50505050600160009054906101000a900473ffffffffffffffffffffffffffffffffffffffff1673ffffffffffffffffffffffffffffffffffffffff16639dc29fac30836040518363ffffffff1660e01b8152600401610ed6929190611a12565b600060405180830381600087803b158015610ef057600080fd5b505af1158015610f04573d6000803e3d6000fd5b5050505061104660008054906101000a900473ffffffffffffffffffffffffffffffffffffffff1673ffffffffffffffffffffffffffffffffffffffff166370a08231306040518263ffffffff1660e01b8152600401610f649190611844565b602060405180830381865afa158015610f81573d6000803e3d6000fd5b505050506040513d601f19601f82011682018060405250810190610fa59190611874565b600160009054906101000a900473ffffffffffffffffffffffffffffffffffffffff1673ffffffffffffffffffffffffffffffffffffffff166370a08231306040518263ffffffff1660e01b81526004016110009190611844565b602060405180830381865afa15801561101d573d6000803e3d6000fd5b505050506040513d601f19601f820116820180604052508101906110419190611874565b611400565b50565b600160009054906101000a900473ffffffffffffffffffffffffffffffffffffffff1673ffffffffffffffffffffffffffffffffffffffff16633158aa7f33836040518363ffffffff1660e01b81526004016110a6929190611a12565b6020604051808303816000875af11580156110c5573d6000803e3d6000fd5b505050506040513d601f19601f820116820180604052508101906110e99190611a73565b611128576040517f08c379a000000000000000000000000000000000000000000000000000000000815260040161111f90611aec565b60405180910390fd5b60008054906101000a900473ffffffffffffffffffffffffffffffffffffffff1673ffffffffffffffffffffffffffffffffffffffff166340c10f1933836040518363ffffffff1660e01b8152600401611183929190611a12565b600060405180830381600087803b15801561119d57600080fd5b505af11580156111b1573d6000803e3d6000fd5b5050505060008054906101000a900473ffffffffffffffffffffffffffffffffffffffff1673ffffffffffffffffffffffffffffffffffffffff16639dc29fac30836040518363ffffffff1660e01b8152600401611210929190611a12565b600060405180830381600087803b15801561122a57600080fd5b505af115801561123e573d6000803e3d6000fd5b5050505061138060008054906101000a900473ffffffffffffffffffffffffffffffffffffffff1673ffffffffffffffffffffffffffffffffffffffff166370a08231306040518263ffffffff1660e01b815260040161129e9190611844565b602060405180830381865afa1580156112bb573d6000803e3d6000fd5b505050506040513d601f19601f820116820180604052508101906112df9190611874565b600160009054906101000a900473ffffffffffffffffffffffffffffffffffffffff1673ffffffffffffffffffffffffffffffffffffffff166370a08231306040518263ffffffff1660e01b815260040161133a9190611844565b602060405180830381865afa158015611357573d6000803e3d6000fd5b505050506040513d601f19601f8201168201806040525081019061137b9190611874565b611400565b50565b6000600354905090565b80600560008473ffffffffffffffffffffffffffffffffffffffff1673ffffffffffffffffffffffffffffffffffffffff16815260200190815260200160002060008282546113dc91906119de565b9250508190555080600460008282546113f591906119de565b925050819055505050565b81600281905550806003819055505050565b6000600382111561147957819050600060016002846114319190611941565b61143b9190611be4565b90505b818110156114735780915060028182856114589190611941565b6114629190611be4565b61146c9190611941565b905061143e565b50611487565b6000821461148657600190505b5b919050565b600081831061149b578161149d565b825b905092915050565b80600560008473ffffffffffffffffffffffffffffffffffffffff1673ffffffffffffffffffffffffffffffffffffffff16815260200190815260200160002060008282546114f49190611be4565b92505081905550806004600082825461150d9190611be4565b925050819055505050565b6000819050919050565b61152b81611518565b82525050565b60006040820190506115466000830185611522565b6115536020830184611522565b9392505050565b600060208201905061156f6000830184611522565b92915050565b600073ffffffffffffffffffffffffffffffffffffffff82169050919050565b6000819050919050565b60006115ba6115b56115b084611575565b611595565b611575565b9050919050565b60006115cc8261159f565b9050919050565b60006115de826115c1565b9050919050565b6115ee816115d3565b82525050565b600060208201905061160960008301846115e5565b92915050565b600080fd5b61161d81611518565b811461162857600080fd5b50565b60008135905061163a81611614565b92915050565b6000602082840312156116565761165561160f565b5b60006116648482850161162b565b91505092915050565b600080604083850312156116845761168361160f565b5b60006116928582860161162b565b92505060206116a38582860161162b565b9150509250929050565b60006116b8826115c1565b9050919050565b6116c8816116ad565b82525050565b60006020820190506116e360008301846116bf565b92915050565b60006116f482611575565b9050919050565b611704816116e9565b811461170f57600080fd5b50565b600081359050611721816116fb565b92915050565b60006020828403121561173d5761173c61160f565b5b600061174b84828501611712565b91505092915050565b61175d816116e9565b82525050565b6000819050919050565b600061178861178361177e84611763565b611595565b611518565b9050919050565b6117988161176d565b82525050565b60006040820190506117b36000830185611754565b6117c0602083018461178f565b9392505050565b600082825260208201905092915050565b7f496e73756666696369656e74206c697175696469747920736861726573000000600082015250565b600061180e601d836117c7565b9150611819826117d8565b602082019050919050565b6000602082019050818103600083015261183d81611801565b9050919050565b60006020820190506118596000830184611754565b92915050565b60008151905061186e81611614565b92915050565b60006020828403121561188a5761188961160f565b5b60006118988482850161185f565b91505092915050565b7f4e487b7100000000000000000000000000000000000000000000000000000000600052601160045260246000fd5b60006118db82611518565b91506118e683611518565b92508282026118f481611518565b9150828204841483151761190b5761190a6118a1565b5b5092915050565b7f4e487b7100000000000000000000000000000000000000000000000000000000600052601260045260246000fd5b600061194c82611518565b915061195783611518565b92508261196757611966611912565b5b828204905092915050565b7f496e73756666696369656e74207472616e7366657220616d6f756e7473000000600082015250565b60006119a8601d836117c7565b91506119b382611972565b602082019050919050565b600060208201905081810360008301526119d78161199b565b9050919050565b60006119e982611518565b91506119f483611518565b9250828203905081811115611a0c57611a0b6118a1565b5b92915050565b6000604082019050611a276000830185611754565b611a346020830184611522565b9392505050565b60008115159050919050565b611a5081611a3b565b8114611a5b57600080fd5b50565b600081519050611a6d81611a47565b92915050565b600060208284031215611a8957611a8861160f565b5b6000611a9784828501611a5e565b91505092915050565b7f546f6b656e205472616e73666572204661696c65640000000000000000000000600082015250565b6000611ad66015836117c7565b9150611ae182611aa0565b602082019050919050565b60006020820190508181036000830152611b0581611ac9565b9050919050565b7f556e62616c616e636564204c69717569646974792050726f7669646564000000600082015250565b6000611b42601d836117c7565b9150611b4d82611b0c565b602082019050919050565b60006020820190508181036000830152611b7181611b35565b9050919050565b7f4e6f204c697175696469747920536861726573204d696e746564000000000000600082015250565b6000611bae601a836117c7565b9150611bb982611b78565b602082019050919050565b60006020820190508181036000830152611bdd81611ba1565b9050919050565b6000611bef82611518565b9150611bfa83611518565b9250828201905080821115611c1257611c116118a1565b5b9291505056fea2646970667358221220ac5f3c65d4cf7e3ebb8a77f4a023b976d18fe18ed8c0250ede037ec954daa3fe64736f6c63430008180033",
  "devdoc": {
    "kind": "dev",
    "methods": {},
    "version": 1
  },
  "userdoc": {
    "kind": "user",
    "methods": {},
    "version": 1
  },
  "storageLayout": {
    "storage": [
      {
        "astId": 989,
        "contract": "contracts/LiquidityPool.sol:LiquidityPool",
        "label": "mytoken",
        "offset": 0,
        "slot": "0",
        "type": "t_contract(Mytoken)1615"
      },
      {
        "astId": 992,
        "contract": "contracts/LiquidityPool.sol:LiquidityPool",
        "label": "mytoken1",
        "offset": 0,
        "slot": "1",
        "type": "t_contract(Mytoken1)1674"
      },
      {
        "astId": 994,
        "contract": "contracts/LiquidityPool.sol:LiquidityPool",
        "label": "reserve1",
        "offset": 0,
        "slot": "2",
        "type": "t_uint256"
      },
      {
        "astId": 996,
        "contract": "contracts/LiquidityPool.sol:LiquidityPool",
        "label": "reserve2",
        "offset": 0,
        "slot": "3",
        "type": "t_uint256"
      },
      {
        "astId": 998,
        "contract": "contracts/LiquidityPool.sol:LiquidityPool",
        "label": "totalLiquidity",
        "offset": 0,
        "slot": "4",
        "type": "t_uint256"
      },
      {
        "astId": 1002,
        "contract": "contracts/LiquidityPool.sol:LiquidityPool",
        "label": "userLiquidity",
        "offset": 0,
        "slot": "5",
        "type": "t_mapping(t_address,t_uint256)"
      }
    ],
    "types": {
      "t_address": {
        "encoding": "inplace",
        "label": "address",
        "numberOfBytes": "20"
      },
      "t_contract(Mytoken)1615": {
        "encoding": "inplace",
        "label": "contract Mytoken",
        "numberOfBytes": "20"
      },
      "t_contract(Mytoken1)1674": {
        "encoding": "inplace",
        "label": "contract Mytoken1",
        "numberOfBytes": "20"
      },
      "t_mapping(t_address,t_uint256)": {
        "encoding": "mapping",
        "key": "t_address",
        "label": "mapping(address => uint256)",
        "numberOfBytes": "32",
        "value": "t_uint256"
      },
      "t_uint256": {
        "encoding": "inplace",
        "label": "uint256",
        "numberOfBytes": "32"
      }
    }
  }
}