{
  "address": "0x4b90447f3BA00f0773B3096E762e1D5DF018f9Ab",
  "abi": [
    {
      "inputs": [
        {
          "internalType": "contract Mytoken",
          "name": "_myToken",
          "type": "address"
        },
        {
          "internalType": "contract Mytoken2",
          "name": "_anotherToken",
          "type": "address"
        }
      ],
      "stateMutability": "nonpayable",
      "type": "constructor"
    },
    {
      "inputs": [],
      "name": "claimReward__transferFailed",
      "type": "error"
    },
    {
      "inputs": [],
      "name": "stake__transferFailed",
      "type": "error"
    },
    {
      "inputs": [],
      "name": "staking__needMoreThanZero",
      "type": "error"
    },
    {
      "inputs": [],
      "name": "unstakeNot_called",
      "type": "error"
    },
    {
      "inputs": [],
      "name": "waitingPeriod_notCompleted",
      "type": "error"
    },
    {
      "inputs": [],
      "name": "withdraw__transferFailed",
      "type": "error"
    },
    {
      "anonymous": false,
      "inputs": [
        {
          "indexed": true,
          "internalType": "address",
          "name": "user",
          "type": "address"
        },
        {
          "indexed": true,
          "internalType": "uint256",
          "name": "amount",
          "type": "uint256"
        }
      ],
      "name": "RewardsClaimed",
      "type": "event"
    },
    {
      "anonymous": false,
      "inputs": [
        {
          "indexed": true,
          "internalType": "address",
          "name": "user",
          "type": "address"
        },
        {
          "indexed": true,
          "internalType": "uint256",
          "name": "amount",
          "type": "uint256"
        }
      ],
      "name": "Staked",
      "type": "event"
    },
    {
      "anonymous": false,
      "inputs": [
        {
          "indexed": true,
          "internalType": "address",
          "name": "user",
          "type": "address"
        },
        {
          "indexed": true,
          "internalType": "uint256",
          "name": "amount",
          "type": "uint256"
        },
        {
          "indexed": true,
          "internalType": "uint256",
          "name": "timestamp",
          "type": "uint256"
        }
      ],
      "name": "WithdrewStake",
      "type": "event"
    },
    {
      "anonymous": false,
      "inputs": [
        {
          "indexed": true,
          "internalType": "address",
          "name": "user",
          "type": "address"
        },
        {
          "indexed": true,
          "internalType": "uint256",
          "name": "amount",
          "type": "uint256"
        },
        {
          "indexed": true,
          "internalType": "uint256",
          "name": "timestamp",
          "type": "uint256"
        }
      ],
      "name": "unboundingPeriodInitiated",
      "type": "event"
    },
    {
      "inputs": [],
      "name": "RewardRate",
      "outputs": [
        {
          "internalType": "uint256",
          "name": "",
          "type": "uint256"
        }
      ],
      "stateMutability": "view",
      "type": "function"
    },
    {
      "inputs": [],
      "name": "anotherToken",
      "outputs": [
        {
          "internalType": "contract Mytoken2",
          "name": "",
          "type": "address"
        }
      ],
      "stateMutability": "view",
      "type": "function"
    },
    {
      "inputs": [
        {
          "internalType": "address",
          "name": "account",
          "type": "address"
        }
      ],
      "name": "earned",
      "outputs": [
        {
          "internalType": "uint256",
          "name": "",
          "type": "uint256"
        }
      ],
      "stateMutability": "view",
      "type": "function"
    },
    {
      "inputs": [],
      "name": "getAnotherTokenBalance",
      "outputs": [
        {
          "internalType": "uint256",
          "name": "",
          "type": "uint256"
        }
      ],
      "stateMutability": "view",
      "type": "function"
    },
    {
      "inputs": [],
      "name": "getCurrentTimestamp",
      "outputs": [
        {
          "internalType": "uint256",
          "name": "",
          "type": "uint256"
        }
      ],
      "stateMutability": "view",
      "type": "function"
    },
    {
      "inputs": [],
      "name": "getRewardsPerTokenShared",
      "outputs": [
        {
          "internalType": "uint256",
          "name": "",
          "type": "uint256"
        }
      ],
      "stateMutability": "view",
      "type": "function"
    },
    {
      "inputs": [],
      "name": "getTotalSupply",
      "outputs": [
        {
          "internalType": "uint256",
          "name": "",
          "type": "uint256"
        }
      ],
      "stateMutability": "view",
      "type": "function"
    },
    {
      "inputs": [],
      "name": "getUserBalance",
      "outputs": [
        {
          "internalType": "uint256",
          "name": "",
          "type": "uint256"
        }
      ],
      "stateMutability": "view",
      "type": "function"
    },
    {
      "inputs": [],
      "name": "getUserClaimableToken",
      "outputs": [
        {
          "components": [
            {
              "internalType": "uint256",
              "name": "timestamp",
              "type": "uint256"
            },
            {
              "internalType": "uint256",
              "name": "amount",
              "type": "uint256"
            },
            {
              "internalType": "bool",
              "name": "claimable",
              "type": "bool"
            }
          ],
          "internalType": "struct Restaking2.requiredData[]",
          "name": "",
          "type": "tuple[]"
        }
      ],
      "stateMutability": "view",
      "type": "function"
    },
    {
      "inputs": [],
      "name": "getUserRewardsPerToken",
      "outputs": [
        {
          "internalType": "uint256",
          "name": "",
          "type": "uint256"
        }
      ],
      "stateMutability": "view",
      "type": "function"
    },
    {
      "inputs": [
        {
          "internalType": "uint256",
          "name": "amount",
          "type": "uint256"
        }
      ],
      "name": "mintTokensForStacker",
      "outputs": [],
      "stateMutability": "nonpayable",
      "type": "function"
    },
    {
      "inputs": [],
      "name": "myToken",
      "outputs": [
        {
          "internalType": "contract Mytoken",
          "name": "",
          "type": "address"
        }
      ],
      "stateMutability": "view",
      "type": "function"
    },
    {
      "inputs": [],
      "name": "rewardPerToken",
      "outputs": [
        {
          "internalType": "uint256",
          "name": "",
          "type": "uint256"
        }
      ],
      "stateMutability": "view",
      "type": "function"
    },
    {
      "inputs": [],
      "name": "rewardPerTokenUpdate",
      "outputs": [
        {
          "internalType": "uint256",
          "name": "",
          "type": "uint256"
        }
      ],
      "stateMutability": "nonpayable",
      "type": "function"
    },
    {
      "inputs": [],
      "name": "s_lastUpdateTime",
      "outputs": [
        {
          "internalType": "uint256",
          "name": "",
          "type": "uint256"
        }
      ],
      "stateMutability": "view",
      "type": "function"
    },
    {
      "inputs": [],
      "name": "s_rewardPerTokenStored",
      "outputs": [
        {
          "internalType": "uint256",
          "name": "",
          "type": "uint256"
        }
      ],
      "stateMutability": "view",
      "type": "function"
    },
    {
      "inputs": [],
      "name": "s_totalSupply",
      "outputs": [
        {
          "internalType": "uint256",
          "name": "",
          "type": "uint256"
        }
      ],
      "stateMutability": "view",
      "type": "function"
    },
    {
      "inputs": [
        {
          "internalType": "uint256",
          "name": "_amount",
          "type": "uint256"
        }
      ],
      "name": "transferTokens",
      "outputs": [],
      "stateMutability": "nonpayable",
      "type": "function"
    },
    {
      "inputs": [
        {
          "internalType": "uint256",
          "name": "amount",
          "type": "uint256"
        }
      ],
      "name": "unstake",
      "outputs": [],
      "stateMutability": "nonpayable",
      "type": "function"
    },
    {
      "inputs": [
        {
          "internalType": "uint256",
          "name": "requiredTimestamp",
          "type": "uint256"
        }
      ],
      "name": "withdraw",
      "outputs": [],
      "stateMutability": "payable",
      "type": "function"
    }
  ],
  "transactionHash": "0xeb50ee212f341bf9260420d67ef64b57699cc12ff12defff2560f82a0aa4c2a6",
  "args": [
    "0x466C868acb03ED465f29dbDD1643062935A37056",
    "0xd0Da277aAc7c1bF68707e2df2087e3142cFc37E7"
  ],
  "numDeployments": 3,
  "solcInputHash": "518162182d5077684f317c7b25dd6dd4",
  "bytecode": "0x608060405260646002553480156200001657600080fd5b5060405162001e7c38038062001e7c83398181016040528101906200003c91906200018f565b816000806101000a81548173ffffffffffffffffffffffffffffffffffffffff021916908373ffffffffffffffffffffffffffffffffffffffff16021790555080600160006101000a81548173ffffffffffffffffffffffffffffffffffffffff021916908373ffffffffffffffffffffffffffffffffffffffff160217905550426004819055505050620001d6565b600080fd5b600073ffffffffffffffffffffffffffffffffffffffff82169050919050565b6000620000fe82620000d1565b9050919050565b60006200011282620000f1565b9050919050565b620001248162000105565b81146200013057600080fd5b50565b600081519050620001448162000119565b92915050565b60006200015782620000f1565b9050919050565b62000169816200014a565b81146200017557600080fd5b50565b60008151905062000189816200015e565b92915050565b60008060408385031215620001a957620001a8620000cc565b5b6000620001b98582860162000133565b9250506020620001cc8582860162000178565b9150509250929050565b611c9680620001e66000396000f3fe60806040526004361061011e5760003560e01c80638a1833a5116100a0578063c406f34511610064578063c406f345146103a7578063c4e41b22146103d2578063cd3daf9d146103fd578063d94e535114610428578063fd9a4e61146104535761011e565b80638a1833a5146102d05780639a9b20e3146102fb578063b7013dc114610326578063b8fcf93714610351578063bd37d9671461037c5761011e565b8063304ac91b116100e7578063304ac91b146101fb5780634bd989ca146102265780636a74a0fc1461024f5780636aa0838f1461027a5780636c9230db146102a55761011e565b80628cc262146101235780631acd4786146101605780631b52113b1461018b5780632e17de78146101b65780632e1a7d4d146101df575b600080fd5b34801561012f57600080fd5b5061014a600480360381019061014591906116b1565b61047c565b60405161015791906116f7565b60405180910390f35b34801561016c57600080fd5b50610175610595565b604051610182919061182d565b60405180910390f35b34801561019757600080fd5b506101a06107b4565b6040516101ad91906116f7565b60405180910390f35b3480156101c257600080fd5b506101dd60048036038101906101d8919061187b565b6107fb565b005b6101f960048036038101906101f4919061187b565b610a0f565b005b34801561020757600080fd5b506102106110f5565b60405161021d91906116f7565b60405180910390f35b34801561023257600080fd5b5061024d6004803603810190610248919061187b565b6110fb565b005b34801561025b57600080fd5b5061026461118b565b60405161027191906116f7565b60405180910390f35b34801561028657600080fd5b5061028f611191565b60405161029c91906116f7565b60405180910390f35b3480156102b157600080fd5b506102ba611197565b6040516102c791906116f7565b60405180910390f35b3480156102dc57600080fd5b506102e561119f565b6040516102f291906116f7565b60405180910390f35b34801561030757600080fd5b506103106111a5565b60405161031d91906116f7565b60405180910390f35b34801561033257600080fd5b5061033b611247565b60405161034891906116f7565b60405180910390f35b34801561035d57600080fd5b5061036661128e565b6040516103739190611907565b60405180910390f35b34801561038857600080fd5b506103916112b2565b60405161039e9190611943565b60405180910390f35b3480156103b357600080fd5b506103bc6112d8565b6040516103c991906116f7565b60405180910390f35b3480156103de57600080fd5b506103e76112e2565b6040516103f491906116f7565b60405180910390f35b34801561040957600080fd5b506104126112ec565b60405161041f91906116f7565b60405180910390f35b34801561043457600080fd5b5061043d61134f565b60405161044a91906116f7565b60405180910390f35b34801561045f57600080fd5b5061047a6004803603810190610475919061187b565b6113c2565b005b600080600660008473ffffffffffffffffffffffffffffffffffffffff1673ffffffffffffffffffffffffffffffffffffffff1681526020019081526020016000205490506000600960008573ffffffffffffffffffffffffffffffffffffffff1673ffffffffffffffffffffffffffffffffffffffff168152602001908152602001600020549050600061050f6112ec565b90506000600860008773ffffffffffffffffffffffffffffffffffffffff1673ffffffffffffffffffffffffffffffffffffffff16815260200190815260200160002054905080670de0b6b3a7640000848461056b919061198d565b8661057691906119c1565b6105809190611a32565b61058a9190611a63565b945050505050919050565b60606000600760003373ffffffffffffffffffffffffffffffffffffffff1673ffffffffffffffffffffffffffffffffffffffff1681526020019081526020016000208054905067ffffffffffffffff8111156105f5576105f4611a97565b5b60405190808252806020026020018201604052801561062e57816020015b61061b611608565b8152602001906001900390816106135790505b50905060005b600760003373ffffffffffffffffffffffffffffffffffffffff1673ffffffffffffffffffffffffffffffffffffffff168152602001908152602001600020805490508110156107ac576000600760003373ffffffffffffffffffffffffffffffffffffffff1673ffffffffffffffffffffffffffffffffffffffff16815260200190815260200160002082815481106106d1576106d0611ac6565b5b90600052602060002090600302016000015490506000600760003373ffffffffffffffffffffffffffffffffffffffff1673ffffffffffffffffffffffffffffffffffffffff168152602001908152602001600020838154811061073857610737611ac6565b5b906000526020600020906003020160010154905060006103e8834261075d919061198d565b10159050604051806060016040528084815260200183815260200182151581525085858151811061079157610790611ac6565b5b60200260200101819052505050508080600101915050610634565b508091505090565b6000600960003373ffffffffffffffffffffffffffffffffffffffff1673ffffffffffffffffffffffffffffffffffffffff16815260200190815260200160002054905090565b80600660003373ffffffffffffffffffffffffffffffffffffffff1673ffffffffffffffffffffffffffffffffffffffff16815260200190815260200160002054101561087d576040517f08c379a000000000000000000000000000000000000000000000000000000000815260040161087490611b52565b60405180910390fd5b80600660003373ffffffffffffffffffffffffffffffffffffffff1673ffffffffffffffffffffffffffffffffffffffff168152602001908152602001600020546108c8919061198d565b600660003373ffffffffffffffffffffffffffffffffffffffff1673ffffffffffffffffffffffffffffffffffffffff16815260200190815260200160002081905550600760003373ffffffffffffffffffffffffffffffffffffffff1673ffffffffffffffffffffffffffffffffffffffff1681526020019081526020016000206040518060600160405280428152602001838152602001600115158152509080600181540180825580915050600190039060005260206000209060030201600090919091909150600082015181600001556020820151816001015560408201518160020160006101000a81548160ff021916908315150217905550505042813373ffffffffffffffffffffffffffffffffffffffff167ffd99ad66fe6dcbc7fecf00d5785a0d0bd80a584451d8cbb7feee471fd04dec8560405160405180910390a450565b42600481905550610a1e61134f565b50610a276112ec565b600581905550610a363361047c565b600860003373ffffffffffffffffffffffffffffffffffffffff1673ffffffffffffffffffffffffffffffffffffffff16815260200190815260200160002081905550600554600960003373ffffffffffffffffffffffffffffffffffffffff1673ffffffffffffffffffffffffffffffffffffffff168152602001908152602001600020819055506000600760003373ffffffffffffffffffffffffffffffffffffffff1673ffffffffffffffffffffffffffffffffffffffff168152602001908152602001600020805480602002602001604051908101604052809291908181526020016000905b82821015610b81578382906000526020600020906003020160405180606001604052908160008201548152602001600182015481526020016002820160009054906101000a900460ff16151515158152505081526020019060010190610b20565b5050505090506000600760003373ffffffffffffffffffffffffffffffffffffffff1673ffffffffffffffffffffffffffffffffffffffff16815260200190815260200160002080549050905060008167ffffffffffffffff811115610bea57610be9611a97565b5b604051908082528060200260200182016040528015610c2357816020015b610c1061162b565b815260200190600190039081610c085790505b50905060005b82811015611024576000848281518110610c4657610c45611ac6565b5b60200260200101516000015190506000858381518110610c6957610c68611ac6565b5b60200260200101516020015190506000868481518110610c8c57610c8b611ac6565b5b60200260200101516040015190506103e88342610ca9919061198d565b10158015610cb657508288145b8015610cbf5750805b15610fd857600160009054906101000a900473ffffffffffffffffffffffffffffffffffffffff1673ffffffffffffffffffffffffffffffffffffffff16639dc29fac33846040518363ffffffff1660e01b8152600401610d21929190611b81565b600060405180830381600087803b158015610d3b57600080fd5b505af1925050508015610d4c575060015b610e02576040518060600160405280848152602001838152602001821515815250858581518110610d8057610d7f611ac6565b5b602002602001018190525082823373ffffffffffffffffffffffffffffffffffffffff167f874b6b6176c92c12e9ffa729ba947c2b035854d42b9df613ee4100f08548136760405160405180910390a46040517f6e3b5f2200000000000000000000000000000000000000000000000000000000815260040160405180910390fd5b42823373ffffffffffffffffffffffffffffffffffffffff167f874b6b6176c92c12e9ffa729ba947c2b035854d42b9df613ee4100f08548136760405160405180910390a442600a60003373ffffffffffffffffffffffffffffffffffffffff1673ffffffffffffffffffffffffffffffffffffffff1681526020019081526020016000208190555081600354610e99919061198d565b6003819055506000610ea96112ec565b9050828184610eb891906119c1565b610ec29190611a63565b925060008054906101000a900473ffffffffffffffffffffffffffffffffffffffff1673ffffffffffffffffffffffffffffffffffffffff166340c10f1933856040518363ffffffff1660e01b8152600401610f1f929190611b81565b600060405180830381600087803b158015610f3957600080fd5b505af1158015610f4d573d6000803e3d6000fd5b50505050823373ffffffffffffffffffffffffffffffffffffffff167ffc30cddea38e2bf4d6ea7d3f9ed3b6ad7f176419f4963bd81318067a4aee73fe60405160405180910390a360405180606001604052808581526020016000815260200160001515815250868681518110610fc757610fc6611ac6565b5b602002602001018190525050611014565b604051806060016040528084815260200183815260200182151581525085858151811061100857611007611ac6565b5b60200260200101819052505b5050508080600101915050610c29565b5060005b828110156110ee5781818151811061104357611042611ac6565b5b6020026020010151600760003373ffffffffffffffffffffffffffffffffffffffff1673ffffffffffffffffffffffffffffffffffffffff168152602001908152602001600020828154811061109c5761109b611ac6565b5b9060005260206000209060030201600082015181600001556020820151816001015560408201518160020160006101000a81548160ff0219169083151502179055509050508080600101915050611028565b5050505050565b60055481565b60008054906101000a900473ffffffffffffffffffffffffffffffffffffffff1673ffffffffffffffffffffffffffffffffffffffff166340c10f1933836040518363ffffffff1660e01b8152600401611156929190611b81565b600060405180830381600087803b15801561117057600080fd5b505af1158015611184573d6000803e3d6000fd5b5050505050565b60035481565b60045481565b600042905090565b60025481565b60008060009054906101000a900473ffffffffffffffffffffffffffffffffffffffff1673ffffffffffffffffffffffffffffffffffffffff166370a08231306040518263ffffffff1660e01b81526004016112019190611baa565b602060405180830381865afa15801561121e573d6000803e3d6000fd5b505050506040513d601f19601f820116820180604052508101906112429190611bda565b905090565b6000600660003373ffffffffffffffffffffffffffffffffffffffff1673ffffffffffffffffffffffffffffffffffffffff16815260200190815260200160002054905090565b60008054906101000a900473ffffffffffffffffffffffffffffffffffffffff1681565b600160009054906101000a900473ffffffffffffffffffffffffffffffffffffffff1681565b6000600554905090565b6000600354905090565b6000806003540361130157600554905061134c565b600354670de0b6b3a76400006002546004544261131e919061198d565b61132891906119c1565b61133291906119c1565b61133c9190611a32565b6005546113499190611a63565b90505b90565b600080600354036113645760055490506113bf565b600354670de0b6b3a764000060025460045442611381919061198d565b61138b91906119c1565b61139591906119c1565b61139f9190611a32565b6005546113ac9190611a63565b6005819055504260048190555060055490505b90565b80600660003373ffffffffffffffffffffffffffffffffffffffff1673ffffffffffffffffffffffffffffffffffffffff1681526020019081526020016000205461140d9190611a63565b600660003373ffffffffffffffffffffffffffffffffffffffff1673ffffffffffffffffffffffffffffffffffffffff168152602001908152602001600020819055508060035461145e9190611a63565b60038190555060008054906101000a900473ffffffffffffffffffffffffffffffffffffffff1673ffffffffffffffffffffffffffffffffffffffff16633158aa7f33836040518363ffffffff1660e01b81526004016114bf929190611b81565b6020604051808303816000875af19250505080156114fb57506040513d601f19601f820116820180604052508101906114f89190611c33565b60015b611531576040517f6d8c0d6000000000000000000000000000000000000000000000000000000000815260040160405180910390fd5b50803373ffffffffffffffffffffffffffffffffffffffff167f9e71bc8eea02a63969f509818f2dafb9254532904319f9dbda79b67bd34a5f3d60405160405180910390a3600160009054906101000a900473ffffffffffffffffffffffffffffffffffffffff1673ffffffffffffffffffffffffffffffffffffffff166340c10f1933836040518363ffffffff1660e01b81526004016115d3929190611b81565b600060405180830381600087803b1580156115ed57600080fd5b505af1158015611601573d6000803e3d6000fd5b5050505050565b604051806060016040528060008152602001600081526020016000151581525090565b604051806060016040528060008152602001600081526020016000151581525090565b600080fd5b600073ffffffffffffffffffffffffffffffffffffffff82169050919050565b600061167e82611653565b9050919050565b61168e81611673565b811461169957600080fd5b50565b6000813590506116ab81611685565b92915050565b6000602082840312156116c7576116c661164e565b5b60006116d58482850161169c565b91505092915050565b6000819050919050565b6116f1816116de565b82525050565b600060208201905061170c60008301846116e8565b92915050565b600081519050919050565b600082825260208201905092915050565b6000819050602082019050919050565b611747816116de565b82525050565b60008115159050919050565b6117628161174d565b82525050565b60608201600082015161177e600085018261173e565b506020820151611791602085018261173e565b5060408201516117a46040850182611759565b50505050565b60006117b68383611768565b60608301905092915050565b6000602082019050919050565b60006117da82611712565b6117e4818561171d565b93506117ef8361172e565b8060005b8381101561182057815161180788826117aa565b9750611812836117c2565b9250506001810190506117f3565b5085935050505092915050565b6000602082019050818103600083015261184781846117cf565b905092915050565b611858816116de565b811461186357600080fd5b50565b6000813590506118758161184f565b92915050565b6000602082840312156118915761189061164e565b5b600061189f84828501611866565b91505092915050565b6000819050919050565b60006118cd6118c86118c384611653565b6118a8565b611653565b9050919050565b60006118df826118b2565b9050919050565b60006118f1826118d4565b9050919050565b611901816118e6565b82525050565b600060208201905061191c60008301846118f8565b92915050565b600061192d826118d4565b9050919050565b61193d81611922565b82525050565b60006020820190506119586000830184611934565b92915050565b7f4e487b7100000000000000000000000000000000000000000000000000000000600052601160045260246000fd5b6000611998826116de565b91506119a3836116de565b92508282039050818111156119bb576119ba61195e565b5b92915050565b60006119cc826116de565b91506119d7836116de565b92508282026119e5816116de565b915082820484148315176119fc576119fb61195e565b5b5092915050565b7f4e487b7100000000000000000000000000000000000000000000000000000000600052601260045260246000fd5b6000611a3d826116de565b9150611a48836116de565b925082611a5857611a57611a03565b5b828204905092915050565b6000611a6e826116de565b9150611a79836116de565b9250828201905080821115611a9157611a9061195e565b5b92915050565b7f4e487b7100000000000000000000000000000000000000000000000000000000600052604160045260246000fd5b7f4e487b7100000000000000000000000000000000000000000000000000000000600052603260045260246000fd5b600082825260208201905092915050565b7f6e6f7420656e6f756768204c5354000000000000000000000000000000000000600082015250565b6000611b3c600e83611af5565b9150611b4782611b06565b602082019050919050565b60006020820190508181036000830152611b6b81611b2f565b9050919050565b611b7b81611673565b82525050565b6000604082019050611b966000830185611b72565b611ba360208301846116e8565b9392505050565b6000602082019050611bbf6000830184611b72565b92915050565b600081519050611bd48161184f565b92915050565b600060208284031215611bf057611bef61164e565b5b6000611bfe84828501611bc5565b91505092915050565b611c108161174d565b8114611c1b57600080fd5b50565b600081519050611c2d81611c07565b92915050565b600060208284031215611c4957611c4861164e565b5b6000611c5784828501611c1e565b9150509291505056fea2646970667358221220398863771bb7fa96a040984b43dd9b3b422723bd60485d067c01cfd91e8b68df64736f6c63430008180033",
  "devdoc": {
    "kind": "dev",
    "methods": {},
    "version": 1
  },
  "userdoc": {
    "kind": "user",
    "methods": {},
    "version": 1
  },
  "storageLayout": {
    "storage": [
      {
        "astId": 2476,
        "contract": "contracts/Restaking2.sol:Restaking2",
        "label": "myToken",
        "offset": 0,
        "slot": "0",
        "type": "t_contract(Mytoken)1615"
      },
      {
        "astId": 2479,
        "contract": "contracts/Restaking2.sol:Restaking2",
        "label": "anotherToken",
        "offset": 0,
        "slot": "1",
        "type": "t_contract(Mytoken2)1733"
      },
      {
        "astId": 2510,
        "contract": "contracts/Restaking2.sol:Restaking2",
        "label": "RewardRate",
        "offset": 0,
        "slot": "2",
        "type": "t_uint256"
      },
      {
        "astId": 2512,
        "contract": "contracts/Restaking2.sol:Restaking2",
        "label": "s_totalSupply",
        "offset": 0,
        "slot": "3",
        "type": "t_uint256"
      },
      {
        "astId": 2514,
        "contract": "contracts/Restaking2.sol:Restaking2",
        "label": "s_lastUpdateTime",
        "offset": 0,
        "slot": "4",
        "type": "t_uint256"
      },
      {
        "astId": 2516,
        "contract": "contracts/Restaking2.sol:Restaking2",
        "label": "s_rewardPerTokenStored",
        "offset": 0,
        "slot": "5",
        "type": "t_uint256"
      },
      {
        "astId": 2534,
        "contract": "contracts/Restaking2.sol:Restaking2",
        "label": "s_userStakedAmount",
        "offset": 0,
        "slot": "6",
        "type": "t_mapping(t_address,t_uint256)"
      },
      {
        "astId": 2540,
        "contract": "contracts/Restaking2.sol:Restaking2",
        "label": "userData",
        "offset": 0,
        "slot": "7",
        "type": "t_mapping(t_address,t_array(t_struct(entry)2523_storage)dyn_storage)"
      },
      {
        "astId": 2544,
        "contract": "contracts/Restaking2.sol:Restaking2",
        "label": "s_rewards",
        "offset": 0,
        "slot": "8",
        "type": "t_mapping(t_address,t_uint256)"
      },
      {
        "astId": 2548,
        "contract": "contracts/Restaking2.sol:Restaking2",
        "label": "s_userRewardsPerToken_Paid",
        "offset": 0,
        "slot": "9",
        "type": "t_mapping(t_address,t_uint256)"
      },
      {
        "astId": 2552,
        "contract": "contracts/Restaking2.sol:Restaking2",
        "label": "withdrawTimeStamp",
        "offset": 0,
        "slot": "10",
        "type": "t_mapping(t_address,t_uint256)"
      }
    ],
    "types": {
      "t_address": {
        "encoding": "inplace",
        "label": "address",
        "numberOfBytes": "20"
      },
      "t_array(t_struct(entry)2523_storage)dyn_storage": {
        "base": "t_struct(entry)2523_storage",
        "encoding": "dynamic_array",
        "label": "struct Restaking2.entry[]",
        "numberOfBytes": "32"
      },
      "t_bool": {
        "encoding": "inplace",
        "label": "bool",
        "numberOfBytes": "1"
      },
      "t_contract(Mytoken)1615": {
        "encoding": "inplace",
        "label": "contract Mytoken",
        "numberOfBytes": "20"
      },
      "t_contract(Mytoken2)1733": {
        "encoding": "inplace",
        "label": "contract Mytoken2",
        "numberOfBytes": "20"
      },
      "t_mapping(t_address,t_array(t_struct(entry)2523_storage)dyn_storage)": {
        "encoding": "mapping",
        "key": "t_address",
        "label": "mapping(address => struct Restaking2.entry[])",
        "numberOfBytes": "32",
        "value": "t_array(t_struct(entry)2523_storage)dyn_storage"
      },
      "t_mapping(t_address,t_uint256)": {
        "encoding": "mapping",
        "key": "t_address",
        "label": "mapping(address => uint256)",
        "numberOfBytes": "32",
        "value": "t_uint256"
      },
      "t_struct(entry)2523_storage": {
        "encoding": "inplace",
        "label": "struct Restaking2.entry",
        "members": [
          {
            "astId": 2518,
            "contract": "contracts/Restaking2.sol:Restaking2",
            "label": "timestamp",
            "offset": 0,
            "slot": "0",
            "type": "t_uint256"
          },
          {
            "astId": 2520,
            "contract": "contracts/Restaking2.sol:Restaking2",
            "label": "amount",
            "offset": 0,
            "slot": "1",
            "type": "t_uint256"
          },
          {
            "astId": 2522,
            "contract": "contracts/Restaking2.sol:Restaking2",
            "label": "notCompleted",
            "offset": 0,
            "slot": "2",
            "type": "t_bool"
          }
        ],
        "numberOfBytes": "96"
      },
      "t_uint256": {
        "encoding": "inplace",
        "label": "uint256",
        "numberOfBytes": "32"
      }
    }
  }
}